:020000040800F2
:10000000D8170020C9010008E5080008FD0700080E
:10001000E10800089D030008A32600080000000076
:10002000000000000000000000000000D3120008E3
:10003000A103000800000000710D0008791B0008F2
:10004000E3010008E3010008E3010008E301000800
:10005000E3010008E3010008E3010008E3010008F0
:10006000E3010008E3010008E3010008E3010008E0
:10007000E3010008E3010008E3010008E3010008D0
:10008000E3010008E3010008E3010008E3010008C0
:10009000E3010008E3010008E3010008E3010008B0
:1000A000E3010008E3010008E3010008E3010008A0
:1000B000E3010008E3010008B51E0008E3010008A1
:1000C000E3010008E3010008E3010008E301000880
:1000D000E301000881240008E3010008E3010008AF
:1000E000E3010008E3010008E301000800F002F862
:1000F00000F05AF80AA090E8000C82448344AAF168
:100100000107DA4501D100F04FF8AFF2090EBAE865
:100110000F0013F0010F18BFFB1A43F0010318473B
:10012000582F0000782F00000A444FF0000C10F800
:10013000013B13F0070408BF10F8014B1D1108BF65
:1001400010F8015B641E05D010F8016B641E01F805
:10015000016BF9D113F0080F1EBF10F8014BAD1C55
:100160000C1B09D16D1E58BF01F801CBFAD505E073
:1001700014F8016B01F8016B6D1EF9D59142D6D3CD
:10018000704700000023002400250026103A28BFF5
:1001900078C1FBD8520728BF30C148BF0B607047F9
:1001A0001FB51FBD10B510BD00F052F81146FFF786
:1001B000F7FF02F045FB00F070F803B4FFF7F2FF21
:1001C00003BC02F090FA0000094880470948004744
:1001D000FEE7FEE7FEE7FEE7FEE7FEE7FEE7FEE7F7
:1001E000FEE7FEE704480549054A064B7047000054
:1001F0007D1B0008ED000008D8110020D817002052
:10020000D8130020D8130020704710B5431C02E01B
:1002100010F8011B71B18107FAD14FF0013202C809
:100220008C1A8C4314EAC211F9D0C01A0A0603D002
:10023000C01E10BDC01A10BD0A0401D0801E10BD22
:100240000902FCD0401E10BD7047704770477047D0
:10025000754600F029F8AE4605006946534620F081
:100260000700854618B020B5FFF7BCFFBDE8204069
:100270004FF000064FF000074FF000084FF0000B62
:1002800021F00701AC46ACE8C009ACE8C009ACE815
:10029000C009ACE8C0098D4670470446AFF3008042
:1002A0002046FFF78AFF00000048704778110020C1
:1002B00070B550E0002000F079FB28A2002108462C
:1002C00000F041FD00F072FE274908600846006812
:1002D000142800D140E025A20121002000F033FDC8
:1002E0004FF47A7002F02EFA24A20121002000F0CF
:1002F0002AFD4FF47A7002F025FA012000F036FB57
:1003000000F0D0FD21A20121052000F01CFD40F2EB
:10031000DC5002F017FA1FA20221052000F013FDA5
:1003200000F0B6FD0446042322460221092000F015
:10033000E9FC00F0A9FD05462346174909880A4A49
:10034000126888182A46012100F0C4FF4FF4C870D3
:1003500002F0F8F900BFADE700BF70BD53656C65F2
:100360006374206B6579210000020020496E70756E
:10037000742061667465722032732100496E707555
:10038000742061667465722031732100496E707546
:10039000742100004F4B21000402002000BFFEE743
:1003A0007047000038B504460020009040F25F110D
:1003B0006143044A02EB41000122694600F002FF5A
:1003C00038BD00000000010838B504460020009048
:1003D00025460AE040F25F116943064A02EB4100FC
:1003E0000122694600F0EEFE6D1C04F11400854206
:1003F000F0DB38BD0000010810B5002000F0D6FA8F
:100400003CE0032000F0B2FA1EA20021084600F0F2
:100410009AFC20A20121002000F095FC20A20221DC
:10042000002000F090FC00F0C1FD21490860084662
:100430000068142800D122E01D48006812280DD160
:100440001C480088FFF7C0FF1BA20321002000F01A
:100450007AFC4FF4967002F075F90FE0154909889F
:10046000134A12688818FFF79DFF18A20321002085
:1004700000F069FC4FF4967002F064F9C1E700BF28
:1004800010BD00004D6F64653A64656C20616C6C52
:1004900000000000504F5745523A657869740000DB
:1004A0004F746865723A64656C206F6E6500000079
:1004B000000200200402002064656C20616C6C2046
:1004C00073756363657373210000000064656C20BD
:1004D0006F6E6520737563636573732100000000A0
:1004E00010B52DE0002000F061FA17A200210846A7
:1004F00000F029FC00F05AFD164908600846006823
:10050000142800D11DE014A20121002000F01BFCE2
:1005100000F0D4FC0446204602F02FFA11490C806A
:10052000200C4880104909880A4A1268881802235A
:100530000C4A002100F0CEFE642002F003F900BF57
:10054000D0E700BF10BD000053656C656374206B7D
:10055000657921000002002047657474696E672E7A
:100560002E2E0000380200200402002030B5044680
:1005700004254FF4302000F06FF80546042D17D104
:100580000C48006940F002000A49086108464461CD
:10059000006940F0400008614FF4302000F05CF842
:1005A00005460448006941F6FD71084001490861AB
:1005B000284630BD0020024004200B49C96801F0E4
:1005C000010109B101200EE00749C96801F00401E9
:1005D00009B1022007E00449C96801F0100109B11E
:1005E000032000E004207047002002400348006917
:1005F00040F080000149086170470000002002407F
:1006000070B504460D460426F00200F025F80646B3
:10061000042E11D10948006940F001000749086122
:100620002580F00200F018F806460448006941F6FB
:10063000FE71084001490861304670BD002002404B
:1006400002480349486003484860704723016745F2
:1006500000200240AB89EFCD00B502460423FFF72E
:10066000ABFF034603E0FFF7A7FF0346521E012B33
:1006700001D1002AF7D102B90523184600BD2DE9A2
:10068000F041024600250026002000230024002718
:1006900091F803C00CF00F0591F803C00CF0100C9A
:1006A000BCF1000F03D091F802C04CEA050591F8A7
:1006B00000C0BCF1000F31D0146800202BE04FF0D7
:1006C000010C0CFA00F3B1F800C00CEA03069E42DC
:1006D00020D183004FF00F0C0CFA03F7BC4305FA4E
:1006E00003FC4CEA040491F803C0BCF1280F06D1C6
:1006F0004FF0010C0CFA00FCC2F814C00AE091F8AB
:1007000003C0BCF1480F05D14FF0010C0CFA00FCFE
:10071000C2F810C0401C0828D1D31460B1F800C042
:10072000BCF1FF0F34DD546800202EE000F1080C0E
:100730004FF0010808FA0CF3B1F800C00CEA030608
:100740009E4221D183004FF00F0C0CFA03F7BC43FB
:1007500005FA03FC4CEA040491F803C0BCF1280F2D
:1007600005D100F1080C08FA0CF8C2F8148091F8D1
:1007700003C0BCF1480F07D100F1080C4FF001088D
:1007800008FA0CF8C2F81080401C0828CED3546038
:10079000BDE8F0810161704770B504460E46002C3B
:1007A0001CDBB42C1ADA204602F034F8B0B140F267
:1007B0005F1161430B4A02EB410000F000FD05466A
:1007C000C5F3090240F25F116143064B03EB41019F
:1007D000881C314600F0E2FC284670BD4FF0FF3027
:1007E000FBE700000000010803480088142190FB8B
:1007F000F1F0401C704700000402002000BFFEE73B
:1008000008B50121102000F0C5FA0420ADF8000061
:1008100003208DF8020010208DF80300694604487B
:10082000FFF72DFF04210248FFF7B4FF08BD0000C9
:100830000010014010B5AE2001F035FF202001F07E
:1008400032FF102001F02FFFB02001F02CFFC82054
:1008500001F029FF002001F026FF102001F023FF06
:10086000402001F020FF812001F01DFFDF2001F07A
:100870001AFFA12001F017FFA62001F014FFA82005
:1008800001F011FF3F2001F00EFFA42001F00BFF4B
:10089000D32001F008FF002001F005FFD52001F072
:1008A00002FFF02001F0FFFED92001F0FCFE222023
:1008B00001F0F9FEDA2001F0F6FE122001F0F3FE5D
:1008C000DB2001F0F0FE202001F0EDFE8D2001F094
:1008D000EAFE142001F0E7FEAF2001F0E4FE10BDB7
:1008E00000BFFEE77047000070B5002100230F2213
:1008F000C47804B3154C246804F4E064C4F5E064DF
:10090000210AC1F10403CA40447804FA03F184784F
:100910001440214309010E4C0678A155047804F0D7
:100920001F050124AC4005786D11AD0005F1E025EF
:10093000C5F8004109E0047804F01F050124AC402B
:10094000044D0678761145F8264070BD0CED00E0A8
:1009500000E400E080E100E002490143024A116046
:10096000704700000000FA050CED00E070B5044689
:100970006006050E15E005F1B001C8B201F093FE66
:10098000002001F090FE102001F08DFE002604E012
:10099000002001F098FE701CC6B2802EF8DB681CA7
:1009A000C5B26000801CA842E5DC70BD70B506468B
:1009B000002415E004F1B001C8B201F074FE00207B
:1009C00001F071FE102001F06EFE002504E03046BB
:1009D00001F079FE681CC5B2802DF8DB601CC4B242
:1009E000082CE7DB70BD000008B50121082000F0ED
:1009F000D1F9C020ADF8000010208DF803000320CD
:100A00008DF8020069460448FFF739FEC02102480C
:100A1000FFF7C0FE08BD0000000C014070B50446A1
:100A20001648006820F070401449086008460068C5
:100A300040F040500860002011490860002517E090
:100A4000E0090F49091D08606006040E022001F04C
:100A500095FE01200B49C1F89801022001F08EFE9D
:100A6000002007490860022001F088FE681CC5B21A
:100A7000082DE5DB00F058F870BD0000000C0140C7
:100A8000988121420080214210B50F48006820F073
:100A900070400D4908600846006840F0405008600A
:100AA00001200A4908600A49C1F89801042001F0B0
:100AB00065FE002005490860042001F05FFE00206B
:100AC0000349C1F8980110BD000C01409C812142EE
:100AD0000080214210B51148006820F070400F4995
:100AE00008600846006840F04050086000200C494B
:100AF00008600C49C1F89C01022001F03FFE012072
:100B000007490860022001F039FE01200549C1F8BB
:100B10009C01042001F032FE10BD0000000C0140D9
:100B2000988121420080214210B5002414480068B9
:100B300020F07040124908600846006840F000400C
:100B4000086001200F49086001F018FE01200E49DD
:100B5000C1F8980101F012FE07E0601CC4B2FA2C43
:100B600003DDFFF7B7FF012010BD0648803800689D
:100B70000028F2D10349091F086000BFF4E7000014
:100B8000000C01409C812142008021422DE9F05F50
:100B900007460C4690461D46DDF828A04FF0000B96
:100BA0002E461CE006F1B001C8B201F07CFD002029
:100BB00001F079FD102001F076FDA14609E05946CB
:100BC0000BF1010B785C01F07EFD09F1010000F0F2
:100BD000FF0904EB08004845F1DC701CC6B205EBC8
:100BE0000A00B042DEDCBDE8F09F2DE9F041054689
:100BF00088461646002410E046FA04F707EBD77142
:100C00004910A7EB41013031CAB205F10801081BB8
:100C1000414600F007F8601CC4B2082CECDBBDE8CC
:100C2000F08100002DE9F04704468846174620462B
:100C3000E11704EB91618911A4EB81142046E117BF
:100C400004EB1171C1F30719E11704EB11710911DC
:100C5000A4EB0111CDB2A7F12000C7B24FEA4801C1
:100C6000B031022202FB0911C8B201F01CFDAA46F4
:100C700005EBDA714910A5EB4101002202EBC1013D
:100C8000C8B201F010FD05EBDA7149101031C8B29D
:100C900001F009FD002607E0194901EB0711885D05
:100CA00001F011FD701CC6B2082EF5DB4FEA4801B9
:100CB000B031022202FB0911491CC8B201F0F3FC59
:100CC000AA4605EBDA714910A5EB4101002202EBBF
:100CD000C101C8B201F0E7FC05EBDA71491010312F
:100CE000C8B201F0E0FC07E0054901EB0711885D9F
:100CF00001F0E9FC701CC6B2102EF5DBBDE8F087F0
:100D0000882A00082DE9F0470646894617461D4601
:100D1000002414E0281B401EC1B20A2001F022FE6C
:100D2000B7FBF0F00A21B0FBF1F201FB120808F169
:100D30003001CAB230194946FFF774FF641CAC4257
:100D4000E8DBBDE8F0872DE9F04106460F46154681
:100D50002846FFF75AFA8046002405E02A5D30193C
:100D60003946FFF75FFF641C4445F7DBBDE8F081BF
:100D70007047000029B1064AD2690243044BDA6188
:100D800004E0034AD2698243014BDA6170470000F4
:100D90000010024029B1064A92690243044B9A614D
:100DA00004E0034A92698243014B9A617047000054
:100DB0000010024030B500210022002400232D4DF8
:100DC0006D6805F00C0121B1042905D0082923D153
:100DD00005E0294D056022E0274D05601FE0254D07
:100DE0006D6805F47012234D6D6805F4803402259A
:100DF00005EB92421CB9214D554305600BE01D4D9A
:100E00006D6805F400351DB11C4D5543056002E0C9
:100E1000194D5543056002E0174D056000BF00BF46
:100E2000144D6D6805F0F0010909154D6B5C0568FE
:100E3000DD4045600F4D6D6805F4E061090A104D15
:100E40006B5C4568DD4085600A4D6D6805F4605156
:100E5000C90A0B4D6B5C4568DD40C560054D6D688A
:100E600005F44041890B074D6B5CC568B5FBF3F594
:100E7000056130BD0010024000127A0000093D00FB
:100E8000060200201602002000487047BC06002021
:100E9000002002490870024800887047280200209C
:100EA0002A0200200120034908700020024908801E
:100EB00070470000280200202A02002010B5002000
:100EC000094908700FE0002401200849087002E079
:100ED00000F034F90446054800780028F8D10CB138
:100EE000204610BD00BFEEE72D0200203402002096
:100EF00000B589B001210820FFF74CFF0121042033
:100F0000FFF738FF4FF40070ADF8200028208DF86F
:100F1000230003208DF8220008A92248FFF7AFFB29
:100F20004FF400711F48FFF735FC42F21070ADF826
:100F300014004720ADF810000020ADF81600ADF801
:100F4000120004A9184801F0CBF90C20ADF80400F8
:100F50000220ADF806000120ADF808000020ADF831
:100F60000A000320ADF80C0001A90F4801F0C8F8F1
:100F700001210D4801F0A3F81E208DF81C0001206E
:100F80008DF81D0003208DF81E0001208DF81F0034
:100F900007A8FFF7A9FC01221121034801F006F977
:100FA00009B000BD000C01400008004010B5002051
:100FB000384908706DE0002401203749087002E0CC
:100FC00000F088F80446344800780028F8D1002C56
:100FD0005ED0622C4AD018DC382C39D00CDC182CAE
:100FE00030D004DC022C49D0102C51D12EE0222C20
:100FF00048D0302C4CD123E0422C2DD04A2C2DD07F
:10100000522C2DD05A2C43D124E0A82C2CD00CDC0F
:10101000902C27D004DC682C10D07A2C38D113E027
:10102000982C29D0A22C33D12EE0B02C22D0C22C67
:1010300026D0E02C1CD0E22C2AD127E0002010BDC5
:101040000120FCE70220FAE70320F8E70420F6E796
:101050000520F4E70620F2E70720F0E70820EEE796
:101060000920ECE70C20EAE70D20E8E71220E6E78C
:101070001320E4E70A20E2E70B20E0E71120DEE797
:101080000F20DCE70E20DAE71420D8E71020D6E79F
:1010900000BF90E72D0200203402002010B500218F
:1010A000044801F00CF800221121024801F07EF8FA
:1010B00010BD00000008004010B50121044800F0F8
:1010C000FEFF01221121024801F070F810BD00005E
:1010D0000008004010B50020154B1B7803F04003BA
:1010E0002BB3144B1B68190E124B1B68C3F307423A
:1010F000D343DBB28B420BD151B90E4B1B88C3F3E8
:1011000007210C4B1A78D343DBB28B4200D108463F
:1011100020B1074B1B7803F0800343B9044B1B78C5
:1011200023F04003024C23700023034C237010BDB6
:101130002D020020300200203402002010B50022D1
:101140001348007800F04000D8B112480088C0F37E
:10115000072110480378D843C0B2884201D10A461B
:1011600000E0002222B10A48007800F0800040B977
:101170000748007820F04000054C20700020064C05
:10118000207012B10348006810BD0020FCE7000089
:101190002D020020300200203402002030B503462A
:1011A0000C461546002207E0184600F008F824F81F
:1011B00012009B1C501C82B2AA42F5DB30BD0146D6
:1011C000088870472DE9F05F80468A461746B8F1D7
:1011D000006F02D33348804501D3BDE8F09FFFF78D
:1011E0002FFAA8F1006B4FEADB25CBF34909C9F5CB
:1011F0008064A74200DC3C464DE04FF0006101EB0B
:10120000C5204A142849FFF7C9FF00260BE009EB67
:101210000600254931F810004FF6FF71884200D0D2
:1012200003E0701C86B2A642F1DB00BFA6421BDAC7
:101230004FF0006101EBC520FFF798F9002608E0A8
:101240003AF8160006EB0901174A22F81100701C43
:1012500086B2A642F4DB4FF0006101EBC5204A14D0
:10126000114900F023F804E022465146404600F0C0
:101270001DF8A74200D10FE06D1C4FF000090AEBEA
:10128000440AA044381B87B2B7F5806F02DD4FF4E3
:10129000806400E03C46B0E700BFFFF7A7F900BF5D
:1012A0009BE7000000000408780900202DE9F041C8
:1012B00005460E461746002407E036F81410284667
:1012C000FFF79EF9AD1C601C84B2BC42F5DBBDE8A3
:1012D000F0817047F8B504460E4617461D46002CAF
:1012E0002BDBB42C29DA082E27DAB5F5806F24DA47
:1012F0004FF400400090BDF8000040EA063080B294
:101300000090BDF80000284480B2009040F25F11C8
:1013100061430B4A02EB410001226946FFF752FF8D
:1013200040F25F116143064A02EB4101881C2A46E4
:101330003946FFF747FF0020F8BD4FF0FF30FBE7CD
:101340000000010870B5002487E01CB90020FFF7F9
:101350002DFB0AE0012C03D10320FFF707FB04E07B
:10136000022C02D10020FFF701FB3DA2002108461C
:10137000FFF7E9FC3DA201210020FFF7E4FC3EA2BB
:1013800002210020FFF7DFFC0024FFF70FFE3D499C
:10139000086008460068142800D15FE039480068FA
:1013A00012282AD127E00020FFF700FB36A20021F7
:1013B0000846FFF7C8FC37A201210020FFF7C3FC55
:1013C00037A202210020FFF7BEFCFFF7EFFD2D49F9
:1013D000086008460068142800D10DE0294800681C
:1013E000012802D1FFF77CF805E0264800680228B2
:1013F00001D1FEF75DFFD6E72FE001F077F92B4929
:101400000988204A126888182949FFF7C5F9054656
:10141000681CA0B127A203210220FFF794FC6420DE
:1014200001F090F9FFF73AFEA9B2214800F0EAFF77
:10143000FFF742FEC82001F085F901240CE00020EE
:10144000FFF7B4FA1DA200210846FFF77CFC4FF419
:10145000967001F077F9022400BF76E700BF70BDF7
:101460004D6F64653A6C6561726E0000504F574570
:10147000523A6578697400004F746865723A736512
:101480006E640000000200204C6561726E204D6F9A
:1014900064653A00312E4469676974616C0000002C
:1014A000322E416E616C6F67000000000402002064
:1014B0003802002053454E4421000000446F6E273F
:1014C0007420686176652064617461210000000009
:1014D00010B50020FFF76AFA12A200210846FFF7B4
:1014E00032FC1CE0FFF762FD114908600846006805
:1014F000142800D114E00E48006801280FDB0C48C6
:10150000006809280BDC0A480068401E00EB8000D8
:101510004FF6FF7101EA80000649088000E0E1E72C
:1015200000BF10BD536574506172743A302D39009C
:10153000000200200402002010B500F001F810BDE8
:101540000CB50020019000903348006840F48030D2
:101550003149086000BF3048006800F40030009056
:101560000198401C0190009818B90198B0F5A06F3F
:10157000F1D12948006800F4003010B1012000903A
:1015800001E0002000900098012843D12348006822
:1015900040F01000214908600846006820F0030070
:1015A00008600846006840F0020008601A48406879
:1015B000194948600846406848600846406840F459
:1015C000806048600846406820F47C104860084607
:1015D000406840F4E81048600846006840F08070B9
:1015E000086000BF0C48006800F000700028F9D0C7
:1015F0000948406820F003000749486008464068F1
:1016000040F00200486000BF0348406800F00C0052
:101610000828F9D10CBD0000001002400020024053
:1016200070B5E8E00020FFF7C1F974A20021084678
:10163000FFF789FB75A201210020FFF784FB75A24B
:1016400002210020FFF77FFB74A203210020FFF797
:101650007AFBFFF7ABFC7449086008460068142861
:1016600000D1C9E070480068012878D174E00020FA
:10167000FFF79CF96DA200210846FFF764FB6FA2FB
:1016800001210020FFF75FFB6FA202210020FFF77E
:101690005AFB62A203210020FFF755FBFFF786FCEF
:1016A0006149086008460068142800D156E05E4889
:1016B000006801281BD118E00020FFF777F965A228
:1016C00000210846FFF73FFBFFF7F8FB564908608B
:1016D0000846006801F051F9FFF768FC52490860BC
:1016E00008460068142800D100E0E5E734E04E48E1
:1016F0000068022830D10020FFF758F958A20021D5
:101700000846FFF720FB4FF47A7001F01BF858A24F
:1017100000210846FFF717FB4FF47A7001F012F82A
:101720000020FFF723F9FFF7BDFB55A2002105209C
:10173000FFF709FB40F2DC5001F004F852A201214E
:101740000520FFF700FBFFF7A3FB0446FFF79CFB18
:101750000546214600F0AEF889E700E04BE032484C
:101760000068022847D10020FFF720F947A2002196
:101770000846FFF7E8FA3CE0FFF718FC2A49086042
:1017800008460068142800D134E000F0AFFF424959
:101790000988254A126888184049FEF7FDFF04466B
:1017A000601CC8B1C4F30230012805D1C4F309019B
:1017B0003A4800F07FF81BE0C4F30230C0B9374864
:1017C00000883649498800EB0140174908600846FF
:1017D000006801F0D2F80BE00020FFF7E7F830A234
:1017E00000210846FFF7AFFA4FF4967000F0AAFF09
:1017F00000BFC1E700BF15E700BF70BD53656C6552
:1018000063742046726F6D3A00000000312E696EDD
:1018100070757400322E666C61736800504F5745C6
:10182000523A6578697400000002002053656C65C7
:101830006374204D6F64653A00000000312E4469E6
:10184000676974616C000000322E416E616C6F67D5
:101850000000000047657474696E672E2E2E00002C
:10186000496E707574206166746572203273210050
:10187000496E707574206166746572203173210041
:10188000496E7075742100004F4B210053656C65E3
:101890006374206B65792100040200203802002067
:1018A000446F6E27742068617665206461746121DD
:1018B0000000000070B505460E4601240020FFF729
:1018C00075F85AA200210846FFF73DFA5BA20121F4
:1018D0000020FFF738FA5DA202210020FFF733FA5B
:1018E0005FA203210020FFF72EFA9CE0FFF75EFBCA
:1018F0005E49086008460068142800D194E05B48FF
:10190000006812280ED10020FFF750F858A20021DD
:101910000846FFF718FA0423324600210620FFF795
:10192000F1F980E05148006811280BD04F48006859
:101930000F2807D04D480068012803D04B480068A5
:10194000092870D149480068112804D1641E012C6F
:1019500021DC01241FE0454800680F280CD1641CDD
:10196000F01CC11700EB9171B4EBA10F13DBC11791
:1019700000EB91718C100EE03C480068012801D109
:10198000012408E039480068092804D1F01CC11777
:1019900000EB91718C100020FFF708F837A20021AE
:1019A0000846FFF7D0F90223224600211846FFF728
:1019B000A9F9601E012101EB8002042300210B2004
:1019C000FFF7A0F900F062F8601E002101EB800033
:1019D000401C35F81020042303210020FFF792F962
:1019E000601E012101EB8000401C35F8102004230B
:1019F0001846FFF787F9601E022101EB8000401CAA
:101A000035F81020042303210820FFF77BF9601E1E
:101A1000032101EB8000401C35F810200423012134
:101A20000C20FFF76FF961E700BF70BD4D6F646573
:101A30003A73686F77206C656E7468004C656674E5
:101A40003A6C65667420706167650000726967684A
:101A5000743A7269676874207061676500000000FD
:101A6000504F5745523A65786974000000020020D3
:101A70004C656E74683A202020200000503A2020E7
:101A80002053746172743A202020200008B502208F
:101A900004238022002100900148FFF777F808BD59
:101AA000F404002010B5FE22284B1A705A707F22D1
:101AB00083F8802083F881208221002004E06022C6
:101AC0000B18224CE254401C1E28F8DBFE221F4B50
:101AD00083F8202083F821207F2283F8A02083F838
:101AE000A1202221002004E006220B18174CE2540A
:101AF000401C1E28F8DBFE22144B83F8402083F89C
:101B000041207F2283F8C02083F8C120C221002019
:101B100004E060220B180D4CE254401C1E28F8DB38
:101B2000FE220A4B83F8602083F861207F2283F82D
:101B3000E02083F8E1206221002004E006220B1857
:101B4000024CE254401C1E28F8DB10BDF4040020B7
:101B5000042808D14FF0E021096941F004014FF059
:101B6000E022116107E04FF0E021096921F0040152
:101B70004FF0E022116170477047000010B5134824
:101B8000006840F0010011490860084640681049AB
:101B900008400E494860084600680E4908400B4955
:101BA00008600846006820F4802008600846406805
:101BB00020F4FE0048604FF41F008860FFF7BCFC73
:101BC0004FF000600449086010BD000000100240A2
:101BD0000000FFF8FFFFF6FE08ED00E0F0B50C4650
:101BE000154600220021068C4FF6FE773E40068403
:101BF000028B018C4FF60C7632407E1C06EA0316EF
:101C00002E433243104EB0420ED0104EB0420BD095
:101C1000B0F1804F08D00E4EB04205D00D4EB0420C
:101C200002D00D4EB04206D14FF6FD76314044F061
:101C30000106314305E04FF6F576314044F00106E8
:101C4000314302830184F0BD002C01400034014087
:101C50000004004000080040000C0040F0B50C46B5
:101C60001546002200210026078C4FF6EF7C07EA7C
:101C70000C070784028B018C4FF6FF7707EA0416E6
:101C800040F6FF473A404FF6FF7707EA03373A43FB
:101C90004FF6FF7707EA05273A43114FB8420ED0B7
:101CA000104FB8420BD0B0F1804F08D00E4FB84261
:101CB00005D00E4FB84202D00D4FB84206D14FF6B4
:101CC000DF77394046F01007394305E04FF65F777C
:101CD000394044F01007394302830184F0BD00000D
:101CE000002C014000340140000400400008004086
:101CF000000C0040F0B50C461546002200210026DD
:101D0000078C4FF6FF6C07EA0C070784828B018C67
:101D10004FF6FF7707EA04264FF60C773A404FF666
:101D2000FF7707EA03172F433A43114FB8420ED00B
:101D3000104FB8420BD0B0F1804F08D00E4FB842D0
:101D400005D00E4FB84202D00D4FB84206D14FF623
:101D5000FF57394046F48077394305E04FF2FF578B
:101D6000394044F48077394382830184F0BD000018
:101D7000002C0140003401400004004000080040F5
:101D8000000C0040F0B50C4615460022002100264C
:101D9000078C4EF6FF7C07EA0C070784828B018CC8
:101DA0004FF6FF7707EA043640F6FF473A404FF612
:101DB000FF7707EA05273A434FF6FF7707EA03372D
:101DC0003A43114FB8420ED0104FB8420BD0B0F189
:101DD000804F08D00E4FB84205D00E4FB84202D007
:101DE0000D4FB84206D14DF6FF77394046F4805783
:101DF000394305E047F6FF57394044F480573943EB
:101E000082830184F0BD0000002C014000340140B9
:101E10000004004000080040000C004030B589B0CC
:101E200004460D4601210846FEF7A4FF01210420C7
:101E3000FEF7B0FF0120ADF8200018208DF8230038
:101E400003208DF8220008A91948FEF718FC01218B
:101E50001748FEF79FFCADF81840ADF8145000206D
:101E6000ADF81A00ADF8160005A94FF0804000F05B
:101E700037FA6020ADF804000120ADF80600601CC0
:101E8000032190FBF1F080B2ADF80A000020ADF81C
:101E90000C0001A94FF0804000F092F90821C8061B
:101EA00000F0DAF90121880700F009F909B030BD26
:101EB0000008014010B50121754800F010F9F8B193
:101EC0007448007800F08000D0B17248007820F0AB
:101ED0001000704908700846007800F00F0020B923
:101EE0000846007840F0400008706A48007800F02A
:101EF0000F000E2805DA67480078401C6549087015
:101F00000AE06448007820F08000624908700846C2
:101F1000007800F0F000087010215D4800F0DFF854
:101F2000002826D05C48006820B3594800F0D3F858
:101F300004465A48007870B15948007810B9012019
:101F400057490870574802880088401C554B188034
:101F5000554820F8124002214D4800F086F9002132
:101F60004B4800F08FF94B48007840F01000494989
:101F7000087088E0464800F0AEF84C4908804748B1
:101F8000007880B14648007810B9022044490870B2
:101F900046480288434801880088401C414B18800D
:101FA000414820F811200021394800F05EF93948F5
:101FB000007800F0100000285BD03648007800F070
:101FC0008000E8B339480088B0F5E17F0DDD37487F
:101FD0000088B0F52F7F08DA3548006840003449A2
:101FE000086008460068086043E030480088B0F5A3
:101FF000AF6F0FDD2D480088B0F5E16F0ADA2C488D
:10200000006840002A4908600846006840F0010066
:1020100008602EE02548008840F69801884228DDB7
:102020002248008840F62821884222DA2148007898
:10203000401C204908701748007800F0F00000E0CC
:1020400002E01449087014E01848008841F2680161
:1020500088420EDD1548008841F25C21884208DA8A
:102060000C48007840F080000A49087000201149AF
:1020700008700848007820F0100006490870002118
:10208000034800F0FFF81121014800F015F810BDD9
:10209000000800402D020020248121422802002057
:1020A0002C0200202A020020BC0600202E02002064
:1020B0003002002034020020CA430282704721B15E
:1020C000028842F00102028004E002884FF6FE73AB
:1020D0001A40028070470146B1F84000704730B5A1
:1020E0000246002000230024158A05EA0103958991
:1020F00005EA010413B10CB1012000E0002030BD5D
:1021000070B505460C46244885420ED023488542CA
:102110000BD0B5F1804F08D02148854205D0214829
:10212000854202D02048854200D100E000BF2088CF
:1021300050B92389A28861882846FFF74FFDE188BE
:10214000284600F0A1F825E0208804280AD1238938
:10215000A28861882846FFF781FDE188284600F0C3
:102160009CF817E0208808280AD12389A288618872
:102170002846FFF7BFFDE188284600F09BF809E0FC
:102180002389A28861882846FFF7FCFDE18828465C
:1021900000F099F870BD0000002C014000340140AF
:1021A0000004004000080040000C00401AB1838980
:1021B0000B43838102E083898B4383817047000056
:1021C00070B5002400220023058C4FF6FE763540C2
:1021D0000584028C8388048B4FF68F752C40B51EC6
:1021E0002C400D882C43751E2A400D892A434D88AA
:1021F0002A43144DA8420BD0134DA84208D0134DCA
:10220000A84205D0124DA84202D0124DA84213D1C7
:102210004FF6F7752A404D892A434FF6FB752A4041
:102220008D882A434FF6FF652B404FF6FF552B4014
:102230008D892B43CD892B4383800483CD8885866C
:10224000028470BD002C0140003401400040014078
:1022500000440140004801400A460021018B4FF62E
:10226000F77319401143018370470A460021018C1E
:102270004DF6FF7319404FF6FF7303EA023319431B
:102280000184704781847047028B4FF6F3731A40C4
:102290000283028B0A4302837047028B4FF2FF33A3
:1022A0001A400283028B4FF6FF7303EA01231A439D
:1022B00002837047828B4FF6F3731A408283828BBE
:1022C0000A4382837047828B4FF2FF331A40828326
:1022D000828B4FF6FF7303EA01231A438283704710
:1022E000002202881D4B98420ED01D4B98420BD005
:1022F000B0F1804F08D01B4B984205D01A4B984242
:1023000002D01A4B984204D14FF68F731A404B8873
:102310001A43174B984207D0164B984204D04FF6F9
:10232000FF431A40CB881A4302808B8883850B8831
:1023300003850A4B98420BD0094B984208D00E4BAC
:10234000984205D00D4B984202D00D4B984201D1D6
:102350000B7A03860123838270470000002C014022
:10236000003401400004004000080040000C004020
:1023700000100040001400400040014000440140B3
:102380000048014070B5054600201C49086042F233
:10239000263000F0F3F901201949C1F8880141F213
:1023A000921000F0EBF91F2419E000201349086097
:1023B00040F22E2000F0E2F901201149C1F8880115
:1023C00025FA04F000F0010020B140F28E6000F028
:1023D000D5F903E040F22E2000F0D0F9641E002C65
:1023E000E3DA00200549086040F22E2000F0C6F92B
:1023F00001200349C1F8880170BD00008801224214
:10240000000022422DE9F04705460E46C6F3023091
:10241000012826D1C6F3090700241CE0204604EB5E
:10242000D0714910A4EB410151B901201349086052
:1024300035F81400A0F10208404600F09FF909E0C9
:1024400000200E49086035F81400A0F1020840464B
:1024500000F094F9641CBC42E0DB012007490860ED
:102460000AE0C6F3023038B92888698800EB0149D0
:102470004846FFF787FF00BFBDE8F087880122428A
:1024800010B540F225511D4800F04AF810B31B4822
:1024900000F002F9C4B21A48008800F40040C8B93C
:1024A0001748008800F4804060B10A2C03D0002057
:1024B0001349088020E01248008840F40040104989
:1024C000088019E00D2C06D10D48008840F48040AA
:1024D0000B49088010E00A480088C0F30D00094944
:1024E0000C5407480088401C0549088008460088AD
:1024F000C72801DD0020088010BD00000038014021
:1025000024020020F405002021B1828942F4005207
:10251000828104E082894DF6FF731A408281704700
:1025200070B50246002400230025002040F66A16FC
:10253000B14200D100BFC1F3421501F01F030126D3
:1025400006FA03F3012D02D19689334006E0022DED
:1025500002D1168A334001E0968A33400C120126DC
:1025600006FA04F41688344013B10CB1012000E0DF
:10257000002070BDF0B50346002400260025002091
:1025800040F66A17B94200D100BF1846C1F34214A1
:1025900001F01F06012707FA06F5012C01D10C30C6
:1025A00004E0022C01D1103000E014301AB10768A9
:1025B0002F43076002E00768AF430760F0BD0000EB
:1025C0002DE9F04786B005460E460024A24600BF1E
:1025D000A1460027B08900B100BF2F462C8A4CF6D7
:1025E000FF700440F08804432C82AC894EF6F3104F
:1025F0000440B08831890843718908430443AC81A1
:10260000AC8A4FF6FF400440B0890443AC8201A875
:10261000FEF7D0FB1F48874202D1DDF810A001E091
:10262000DDF80CA0A88900F4004040B10AEBCA0014
:1026300000EB0A1031684900B0FBF1F807E00AEB43
:10264000CA0000EB0A1031688900B0FBF1F8642081
:10265000B8FBF0F004012009642101FB1089A8896E
:1026600000F4004040B1322000EBC900B0FBF1F0B3
:1026700000F00700044308E0322000EB0910642159
:10268000B0FBF1F000F00F0004432C8106B0BDE870
:10269000F08700000038014001468888C0F3080038
:1026A000704700BFFEE710B50446FEF7EDF978204D
:1026B000FEF7B4F90020FEF7B1F92046FEF7AEF9B7
:1026C000FEF708FA10BD10B50446FEF7DDF97820D4
:1026D000FEF7A4F94020FEF7A1F92046FEF79EF987
:1026E000FEF7F8F910BD014600BF7047002004E076
:1026F0000021044A22F81010401CB0F5AF7FF7DB30
:10270000704700003802002010B504466FF0040046
:10271000FFF71EFAE11704EB5171C1F3C701074A35
:1027200011701046007800EB4001C1EBC0104FF66D
:10273000FF7101EAC0000249088010BD1A020020A2
:102740001C02002070B504464FF4077094FBF0F0B3
:10275000C6B24FF4077094FBF0F100FB114085B254
:1027600005E04FF4077000F02FF8701EC6B2002E7F
:10277000F7D115B1284600F027F870BD0146114A7F
:1027800012784A434FF0E0235A6100229A611A46B8
:10279000126942F001021A6100BF4FF0E022106995
:1027A00000F001021AB100F48032002AF5D04FF097
:1027B000E022126922F001024FF0E0231A610022A8
:1027C0009A6170471A0200200146114A12884A4352
:1027D0004FF0E0235A6100229A611A46126942F0D2
:1027E00001021A6100BF4FF0E022106900F00102FF
:1027F0001AB100F48032002AF5D04FF0E0221269BD
:1028000022F001024FF0E0231A6100229A61704722
:102810001C02002070B50446002C0CDBB42C0ADA34
:1028200040F25F116143054A02EB4100FEF7C7FC2D
:102830000546E81370BD4FF0FF30FBE700000108CC
:1028400008B54FF4A060FEF787F84FF4E13000F0D0
:10285000CBF84820FFF758FFFEF7C6F8FDF7EAFF70
:102860000020FEF7A3F8FEF743FB002140F267705B
:10287000FFF7D4FAFDF7C4FFFFF714F9082000238F
:102880004022194600902448FEF780F923A2012136
:102890000A20FEF758FA23A203210820FEF753FA74
:1028A000FEF784FB37E00020FEF780F81FA200212E
:1028B0000846FEF748FAFDF797FF04460123224633
:1028C00000210A20FEF71EFA1CA201210020FEF7BB
:1028D0003AFA1EA202210020FEF735FA1EA20321B9
:1028E0000020FEF730FAFEF761FB012806D002282F
:1028F00007D0032808D004280CD108E0FEF7E8FD33
:1029000008E0FEF71FFD05E0FDF776FD02E0FEF7AB
:1029100087FE00BF00BFC6E70000002047554554B2
:102920000000000057656C636F6D6500312E5365C4
:10293000745061727428202900000000322E536503
:102940006E642F4C6561726E00000000332E44658A
:102950006C65746500000000342E53686F77446125
:102960007461000010B50246012000E050430B00E6
:10297000A1F10104E1B2F9D110BD10B50446002067
:10298000FEF714F8220E00210846FEF72EF9220E5B
:10299000032300210A20FEF7B5F9C4F30742012101
:1029A0000020FEF722F90323C4F3074201210A2085
:1029B000FEF7A8F9C4F3072202210020FEF715F95B
:1029C0000323C4F3072202210A20FEF79BF9E2B297
:1029D00003210020FEF709F9E2B2032319460A2079
:1029E000FEF790F910BD000010B586B00446012135
:1029F00044F20400FEF7CEF94FF40070ADF8140075
:102A000003208DF8160018208DF8170005A91C4822
:102A1000FDF735FE4FF48060ADF8140004208DF80A
:102A2000170005A91648FDF72AFE25208DF800009D
:102A300003208DF801008DF8020001208DF80300BD
:102A40006846FDF751FF01940020ADF80800ADF88D
:102A50000A00ADF80C00ADF810000C20ADF80E0027
:102A600001A90848FFF7ACFD012240F225510548B5
:102A7000FFF780FD01210348FFF746FD06B010BDBA
:102A80000008014000380140000000000000000084
:102A90000000000000000000000000F8000000003E
:102AA000000000330000000000100C02100C0200B7
:102AB00000000000000000000040C07840C0780026
:102AC00000043F04043F040000708888FC083000C4
:102AD00000182020FF211E00F008F0806018000080
:102AE00000310C031E211E0000F008887000000059
:102AF0001E21232C1927211000120E0000000000B7
:102B00000000000000000000000000E018040200C7
:102B1000000000071820400000020418E000000038
:102B20000040201807000000404080F08040400036
:102B30000202010F0102020000000000E00000009C
:102B4000000101010F010101000000000000000070
:102B50000090700000000000000000000000000075
:102B6000000101010101010000000000000000005F
:102B7000003030000000000000000000C0380400F9
:102B8000006018070000000000E010080810E000D6
:102B9000000F102020100F0000001010F80000009F
:102BA000000020203F202000007008080808F000E6
:102BB00000302824222130000030080808887000E6
:102BC0000018202121221C000000804030F8000065
:102BD00000060524243F242400F88888880808007B
:102BE0000019202020110E0000E0108888900000BD
:102BF000000F112020201F00001808088868180006
:102C00000000003E01000000007088080888700085
:102C1000001C222121221C0000F008080810E000FE
:102C20000001122222110F00000000C0C0000000AD
:102C300000000030300000000000008000000000B4
:102C4000000000E0000000000000804020100800AC
:102C500000010204081020000040404040404000B5
:102C60000002020202020200000810204080000060
:102C70000020100804020100007048080888700055
:102C80000000003037000000C030C828E810E00025
:102C9000071827282F2817000000C038E000000080
:102CA000203C23020227382008F88888887000001A
:102CB000203F202020110E00C030080808083800EE
:102CC000071820202010080008F808080810E00065
:102CD000203F202020100F0008F88888E808100006
:102CE000203F20202320180008F88888E8081000DA
:102CF000203F200003000000C03008080838000012
:102D000007182020221E020008F808000008F80812
:102D1000203F210101213F20000808F80808000099
:102D20000020203F2020000000000808F8080800CC
:102D3000C08080807F00000008F888C02818080044
:102D4000203F20012638200008F80800000000007D
:102D5000203F20202020300008F8F800F8F8080074
:102D6000203F013E013F200008F830C00008F8086D
:102D7000203F200007183F00E01008080810E0007E
:102D80000F10202020100F0008F808080808F00095
:102D9000203F210101010000E01008080810E000B8
:102DA0000F10282830504F0008F888888888700055
:102DB000203F2000030C30200070880808083800ED
:102DC0000038202121221C00180808F808081800E3
:102DD0000000203F2000000008F808000008F80864
:102DE000001F202020201F000878880000C8380815
:102DF000000007380E01000008F800F800F808008D
:102E000000033E013E03000008186880806818082F
:102E100020302C03032C30200838C800C8380800A4
:102E20000000203F2000000010080808C8380800F3
:102E30002038262120201800000000FE0202020097
:102E40000000007F40404000000438C00000000047
:102E5000000000010638C00000020202FE0000006F
:102E6000004040407F000000000004020204000017
:102E70000000000000000000000000000000000052
:102E8000808080808080808000020204000000003A
:102E900000000000000000000000808080000000B2
:102EA00000192424123F200010F000808000000050
:102EB000003F112020110E000000008080800000E3
:102EC000000E112020201100000080808090F00072
:102ED000001F202020103F20000080808080000004
:102EE000001F242424241700008080E090902000FC
:102EF0000020203F20200000000080808080800093
:102F0000006B94949493600010F000808080000027
:102F1000203F210000203F20008098980000000002
:102F20000020203F20200000000000809898000032
:102F300000C08080807F000010F000008080800052
:102F4000203F240629302000001010F80000000067
:102F50000020203F20200000808080808080800032
:102F6000203F20003F20003F8080008080800000C4
:102F7000203F210000203F20000080808080000052
:102F8000001F202020201F00808000808000000083
:102F900080FF912020110E00000000808000800042
:102FA000000E11202091FF808080800080808000B2
:102FB00020203F21200001000000808080808000D0
:102FC0000033242424241900008080E08080000045
:102FD0000000001F20201000808000000080800082
:102FE000001F202020103F208080800080808000F3
:102FF00000030C300C030000808000808000808083
:10300000010E300C073806010080808000808000AF
:103010000020310E2E3120008080800000808080D2
:103020000081867818060100008080808080800002
:103030000021302C222130000000000000FC0202A0
:1030400000000000013E404000000000FF000000C2
:1030500000000000FF0000000202FC000000000071
:1030600040403E0100000000000201020204020094
:103070000000000000000000983000080000002060
:10308000380200002801000804320008380200203D
:10309000A015000084010008D11380401009201001
:1030A0009008088004043702228252D2421F028212
:1030B0008242024012000A120808101020204080AC
:1030C00080180B4020100C060261C040A0301C018B
:1030D0008088481220441010111A1001190F124054
:1030E0001280120442786F010204083040471EC06B
:1030F000180601401E1480010637C0300804C201C2
:103100001A0470193A180B80C0E0E0F0F0F8F8F8F3
:10311000FC01280DF8F9E20408106083020203069E
:1031200024340208601AFC0B130107320C53F80315
:103130001B0E3818880B20303C1E0F0F0707073F67
:10314000012A0F36111C010CF03C19CF311303B0CA
:103150003A3F883905531FC0380F203032323031A2
:103160002303031333333233011D1303030158398F
:10317000203C80300F26411BE006442B18603E198E
:10318000B012801F020C102043933829341513030A
:103190000202170105090810102A202F2E80402056
:1031A0001008BB4340101B40103E611F0204083052
:1031B00040C0471A042C1118080141028004040879
:1031C00001413908280804040202014040684A020B
:1031D000483A02CDE11301021937496F2A40013202
:1031E000021A420812411C212020181A08480A110C
:1031F0000139493D2B030404380806070809020475
:04320000067C011A2D
:04000005080000ED02
:00000001FF
